{
  "_format": "hh-sol-artifact-1",
  "contractName": "MasterControl",
  "sourceName": "contracts/MasterControl.sol",
  "abi": [
    {
      "inputs": [
        {
          "internalType": "address",
          "name": "_loanContract",
          "type": "address"
        },
        {
          "internalType": "address",
          "name": "_accessControlContract",
          "type": "address"
        },
        {
          "internalType": "address",
          "name": "_identityContract",
          "type": "address"
        },
        {
          "internalType": "address",
          "name": "_creditScoringContract",
          "type": "address"
        },
        {
          "internalType": "address",
          "name": "_tokenContract",
          "type": "address"
        },
        {
          "internalType": "address",
          "name": "_registryContract",
          "type": "address"
        }
      ],
      "stateMutability": "nonpayable",
      "type": "constructor"
    },
    {
      "anonymous": false,
      "inputs": [
        {
          "indexed": false,
          "internalType": "string",
          "name": "contractName",
          "type": "string"
        },
        {
          "indexed": false,
          "internalType": "address",
          "name": "newAddress",
          "type": "address"
        }
      ],
      "name": "ContractUpdated",
      "type": "event"
    },
    {
      "inputs": [],
      "name": "accessControlContract",
      "outputs": [
        {
          "internalType": "contract AccessControl",
          "name": "",
          "type": "address"
        }
      ],
      "stateMutability": "view",
      "type": "function"
    },
    {
      "inputs": [
        {
          "internalType": "address",
          "name": "userAddress",
          "type": "address"
        },
        {
          "internalType": "string",
          "name": "name",
          "type": "string"
        },
        {
          "internalType": "string",
          "name": "governmentId",
          "type": "string"
        },
        {
          "internalType": "string",
          "name": "aadhaarNumber",
          "type": "string"
        }
      ],
      "name": "addIdentity",
      "outputs": [],
      "stateMutability": "nonpayable",
      "type": "function"
    },
    {
      "inputs": [
        {
          "internalType": "bytes32",
          "name": "role",
          "type": "bytes32"
        },
        {
          "internalType": "address",
          "name": "member",
          "type": "address"
        }
      ],
      "name": "assignRole",
      "outputs": [],
      "stateMutability": "nonpayable",
      "type": "function"
    },
    {
      "inputs": [
        {
          "internalType": "address",
          "name": "userAddress",
          "type": "address"
        }
      ],
      "name": "calculateCreditScore",
      "outputs": [],
      "stateMutability": "nonpayable",
      "type": "function"
    },
    {
      "inputs": [
        {
          "internalType": "address",
          "name": "borrower",
          "type": "address"
        }
      ],
      "name": "closeLoan",
      "outputs": [],
      "stateMutability": "nonpayable",
      "type": "function"
    },
    {
      "inputs": [
        {
          "internalType": "address",
          "name": "borrower",
          "type": "address"
        },
        {
          "internalType": "uint256",
          "name": "amount",
          "type": "uint256"
        },
        {
          "internalType": "uint256",
          "name": "interestRate",
          "type": "uint256"
        },
        {
          "internalType": "uint256",
          "name": "duration",
          "type": "uint256"
        }
      ],
      "name": "createLoan",
      "outputs": [],
      "stateMutability": "nonpayable",
      "type": "function"
    },
    {
      "inputs": [
        {
          "internalType": "bytes32",
          "name": "role",
          "type": "bytes32"
        }
      ],
      "name": "createRole",
      "outputs": [],
      "stateMutability": "nonpayable",
      "type": "function"
    },
    {
      "inputs": [],
      "name": "creditScoringContract",
      "outputs": [
        {
          "internalType": "contract CreditScoring",
          "name": "",
          "type": "address"
        }
      ],
      "stateMutability": "view",
      "type": "function"
    },
    {
      "inputs": [],
      "name": "identityContract",
      "outputs": [
        {
          "internalType": "contract Identity",
          "name": "",
          "type": "address"
        }
      ],
      "stateMutability": "view",
      "type": "function"
    },
    {
      "inputs": [],
      "name": "loanContract",
      "outputs": [
        {
          "internalType": "contract Loan",
          "name": "",
          "type": "address"
        }
      ],
      "stateMutability": "view",
      "type": "function"
    },
    {
      "inputs": [
        {
          "internalType": "address",
          "name": "recipient",
          "type": "address"
        },
        {
          "internalType": "uint256",
          "name": "amount",
          "type": "uint256"
        }
      ],
      "name": "mint",
      "outputs": [],
      "stateMutability": "nonpayable",
      "type": "function"
    },
    {
      "inputs": [],
      "name": "owner",
      "outputs": [
        {
          "internalType": "address",
          "name": "",
          "type": "address"
        }
      ],
      "stateMutability": "view",
      "type": "function"
    },
    {
      "inputs": [],
      "name": "registryContract",
      "outputs": [
        {
          "internalType": "contract Registry",
          "name": "",
          "type": "address"
        }
      ],
      "stateMutability": "view",
      "type": "function"
    },
    {
      "inputs": [
        {
          "internalType": "bytes32",
          "name": "role",
          "type": "bytes32"
        },
        {
          "internalType": "address",
          "name": "member",
          "type": "address"
        }
      ],
      "name": "removeRole",
      "outputs": [],
      "stateMutability": "nonpayable",
      "type": "function"
    },
    {
      "inputs": [],
      "name": "tokenContract",
      "outputs": [
        {
          "internalType": "contract Token",
          "name": "",
          "type": "address"
        }
      ],
      "stateMutability": "view",
      "type": "function"
    },
    {
      "inputs": [
        {
          "internalType": "address",
          "name": "_accessControlContract",
          "type": "address"
        }
      ],
      "name": "updateAccessControlContract",
      "outputs": [],
      "stateMutability": "nonpayable",
      "type": "function"
    },
    {
      "inputs": [
        {
          "internalType": "address",
          "name": "userAddress",
          "type": "address"
        },
        {
          "internalType": "uint256",
          "name": "score",
          "type": "uint256"
        }
      ],
      "name": "updateCreditScore",
      "outputs": [],
      "stateMutability": "nonpayable",
      "type": "function"
    },
    {
      "inputs": [
        {
          "internalType": "address",
          "name": "_creditScoringContract",
          "type": "address"
        }
      ],
      "name": "updateCreditScoringContract",
      "outputs": [],
      "stateMutability": "nonpayable",
      "type": "function"
    },
    {
      "inputs": [
        {
          "internalType": "address",
          "name": "userAddress",
          "type": "address"
        },
        {
          "internalType": "string",
          "name": "name",
          "type": "string"
        },
        {
          "internalType": "string",
          "name": "governmentId",
          "type": "string"
        },
        {
          "internalType": "string",
          "name": "aadhaarNumber",
          "type": "string"
        }
      ],
      "name": "updateIdentity",
      "outputs": [],
      "stateMutability": "nonpayable",
      "type": "function"
    },
    {
      "inputs": [
        {
          "internalType": "address",
          "name": "_identityContract",
          "type": "address"
        }
      ],
      "name": "updateIdentityContract",
      "outputs": [],
      "stateMutability": "nonpayable",
      "type": "function"
    },
    {
      "inputs": [
        {
          "internalType": "address",
          "name": "borrower",
          "type": "address"
        },
        {
          "internalType": "uint256",
          "name": "amount",
          "type": "uint256"
        },
        {
          "internalType": "uint256",
          "name": "interestRate",
          "type": "uint256"
        },
        {
          "internalType": "uint256",
          "name": "duration",
          "type": "uint256"
        }
      ],
      "name": "updateLoan",
      "outputs": [],
      "stateMutability": "nonpayable",
      "type": "function"
    },
    {
      "inputs": [
        {
          "internalType": "address",
          "name": "_loanContract",
          "type": "address"
        }
      ],
      "name": "updateLoanContract",
      "outputs": [],
      "stateMutability": "nonpayable",
      "type": "function"
    },
    {
      "inputs": [
        {
          "internalType": "address",
          "name": "_registryContract",
          "type": "address"
        }
      ],
      "name": "updateRegistryContract",
      "outputs": [],
      "stateMutability": "nonpayable",
      "type": "function"
    },
    {
      "inputs": [
        {
          "internalType": "address",
          "name": "_tokenContract",
          "type": "address"
        }
      ],
      "name": "updateTokenContract",
      "outputs": [],
      "stateMutability": "nonpayable",
      "type": "function"
    },
    {
      "inputs": [
        {
          "internalType": "address",
          "name": "userAddress",
          "type": "address"
        },
        {
          "internalType": "string",
          "name": "aadhaarNumber",
          "type": "string"
        }
      ],
      "name": "verifyAadhaar",
      "outputs": [
        {
          "internalType": "bool",
          "name": "",
          "type": "bool"
        }
      ],
      "stateMutability": "view",
      "type": "function"
    }
  ],
  "bytecode": "0x60806040523480156200001157600080fd5b506040516200282d3803806200282d833981810160405281019062000037919062000273565b336000806101000a81548173ffffffffffffffffffffffffffffffffffffffff021916908373ffffffffffffffffffffffffffffffffffffffff16021790555085600160006101000a81548173ffffffffffffffffffffffffffffffffffffffff021916908373ffffffffffffffffffffffffffffffffffffffff16021790555084600260006101000a81548173ffffffffffffffffffffffffffffffffffffffff021916908373ffffffffffffffffffffffffffffffffffffffff16021790555083600360006101000a81548173ffffffffffffffffffffffffffffffffffffffff021916908373ffffffffffffffffffffffffffffffffffffffff16021790555082600460006101000a81548173ffffffffffffffffffffffffffffffffffffffff021916908373ffffffffffffffffffffffffffffffffffffffff16021790555081600560006101000a81548173ffffffffffffffffffffffffffffffffffffffff021916908373ffffffffffffffffffffffffffffffffffffffff16021790555080600660006101000a81548173ffffffffffffffffffffffffffffffffffffffff021916908373ffffffffffffffffffffffffffffffffffffffff1602179055505050505050506200030f565b600080fd5b600073ffffffffffffffffffffffffffffffffffffffff82169050919050565b60006200023b826200020e565b9050919050565b6200024d816200022e565b81146200025957600080fd5b50565b6000815190506200026d8162000242565b92915050565b60008060008060008060c0878903121562000293576200029262000209565b5b6000620002a389828a016200025c565b9650506020620002b689828a016200025c565b9550506040620002c989828a016200025c565b9450506060620002dc89828a016200025c565b9350506080620002ef89828a016200025c565b92505060a06200030289828a016200025c565b9150509295509295509295565b61250e806200031f6000396000f3fe608060405234801561001057600080fd5b50600436106101735760003560e01c806380ed9110116100de578063c42994a211610097578063ef974bc111610071578063ef974bc1146103e6578063f1c3753a14610402578063f6ba00071461041e578063fb3ec6391461043a57610173565b8063c42994a21461037e578063d88e48f31461039a578063ef611cbd146103b657610173565b806380ed9110146102d45780638da5cb5b146102f0578063989ced261461030e5780639e8101c61461032a578063a274176e14610346578063ac7eeff31461036257610173565b80633216622c116101305780633216622c1461022857806340c10f191461024457806355a373d61461026057806365352f9d1461027e57806367031bae1461029a5780636e80b9cd146102b857610173565b806310bba285146101785780631bde13ef1461019457806321fcc185146101b2578063253f284b146101d057806328c1f99b146101ee57806330a727b31461020c575b600080fd5b610192600480360381019061018d9190611928565b610456565b005b61019c61055f565b6040516101a991906119b4565b60405180910390f35b6101ba610585565b6040516101c791906119f0565b60405180910390f35b6101d86105ab565b6040516101e59190611a2c565b60405180910390f35b6101f66105d1565b6040516102039190611a68565b60405180910390f35b61022660048036038101906102219190611ab9565b6105f7565b005b610242600480360381019061023d9190611c3f565b610718565b005b61025e60048036038101906102599190611d30565b61083f565b005b610268610960565b6040516102759190611d91565b60405180910390f35b61029860048036038101906102939190611d30565b610986565b005b6102a2610aa7565b6040516102af9190611dcd565b60405180910390f35b6102d260048036038101906102cd9190611928565b610acd565b005b6102ee60048036038101906102e99190611928565b610beb565b005b6102f8610cf4565b6040516103059190611df7565b60405180910390f35b61032860048036038101906103239190611928565b610d18565b005b610344600480360381019061033f9190611e12565b610e21565b005b610360600480360381019061035b9190611928565b610f48565b005b61037c60048036038101906103779190611928565b611051565b005b61039860048036038101906103939190611e79565b61115a565b005b6103b460048036038101906103af9190611c3f565b611278565b005b6103d060048036038101906103cb9190611ea6565b61139f565b6040516103dd9190611f1d565b60405180910390f35b61040060048036038101906103fb9190611e12565b611447565b005b61041c60048036038101906104179190611928565b61156e565b005b61043860048036038101906104339190611ab9565b61168c565b005b610454600480360381019061044f9190611928565b6117ad565b005b60008054906101000a900473ffffffffffffffffffffffffffffffffffffffff1673ffffffffffffffffffffffffffffffffffffffff163373ffffffffffffffffffffffffffffffffffffffff16146104e4576040517f08c379a00000000000000000000000000000000000000000000000000000000081526004016104db90611fbb565b60405180910390fd5b80600660006101000a81548173ffffffffffffffffffffffffffffffffffffffff021916908373ffffffffffffffffffffffffffffffffffffffff1602179055507ff611fec7babefd259c57ea5b6006acff8140ab17bb816c65ba0aa7e36c09caa8816040516105549190612027565b60405180910390a150565b600460009054906101000a900473ffffffffffffffffffffffffffffffffffffffff1681565b600260009054906101000a900473ffffffffffffffffffffffffffffffffffffffff1681565b600160009054906101000a900473ffffffffffffffffffffffffffffffffffffffff1681565b600660009054906101000a900473ffffffffffffffffffffffffffffffffffffffff1681565b60008054906101000a900473ffffffffffffffffffffffffffffffffffffffff1673ffffffffffffffffffffffffffffffffffffffff163373ffffffffffffffffffffffffffffffffffffffff1614610685576040517f08c379a000000000000000000000000000000000000000000000000000000000815260040161067c90611fbb565b60405180910390fd5b600260009054906101000a900473ffffffffffffffffffffffffffffffffffffffff1673ffffffffffffffffffffffffffffffffffffffff166330a727b383836040518363ffffffff1660e01b81526004016106e2929190612064565b600060405180830381600087803b1580156106fc57600080fd5b505af1158015610710573d6000803e3d6000fd5b505050505050565b60008054906101000a900473ffffffffffffffffffffffffffffffffffffffff1673ffffffffffffffffffffffffffffffffffffffff163373ffffffffffffffffffffffffffffffffffffffff16146107a6576040517f08c379a000000000000000000000000000000000000000000000000000000000815260040161079d90611fbb565b60405180910390fd5b600360009054906101000a900473ffffffffffffffffffffffffffffffffffffffff1673ffffffffffffffffffffffffffffffffffffffff16633216622c858585856040518563ffffffff1660e01b815260040161080794939291906120fb565b600060405180830381600087803b15801561082157600080fd5b505af1158015610835573d6000803e3d6000fd5b5050505050505050565b60008054906101000a900473ffffffffffffffffffffffffffffffffffffffff1673ffffffffffffffffffffffffffffffffffffffff163373ffffffffffffffffffffffffffffffffffffffff16146108cd576040517f08c379a00000000000000000000000000000000000000000000000000000000081526004016108c490611fbb565b60405180910390fd5b600560009054906101000a900473ffffffffffffffffffffffffffffffffffffffff1673ffffffffffffffffffffffffffffffffffffffff166340c10f1983836040518363ffffffff1660e01b815260040161092a929190612164565b600060405180830381600087803b15801561094457600080fd5b505af1158015610958573d6000803e3d6000fd5b505050505050565b600560009054906101000a900473ffffffffffffffffffffffffffffffffffffffff1681565b60008054906101000a900473ffffffffffffffffffffffffffffffffffffffff1673ffffffffffffffffffffffffffffffffffffffff163373ffffffffffffffffffffffffffffffffffffffff1614610a14576040517f08c379a0000000000000000000000000000000000000000000000000000000008152600401610a0b90611fbb565b60405180910390fd5b600460009054906101000a900473ffffffffffffffffffffffffffffffffffffffff1673ffffffffffffffffffffffffffffffffffffffff166365352f9d83836040518363ffffffff1660e01b8152600401610a71929190612164565b600060405180830381600087803b158015610a8b57600080fd5b505af1158015610a9f573d6000803e3d6000fd5b505050505050565b600360009054906101000a900473ffffffffffffffffffffffffffffffffffffffff1681565b60008054906101000a900473ffffffffffffffffffffffffffffffffffffffff1673ffffffffffffffffffffffffffffffffffffffff163373ffffffffffffffffffffffffffffffffffffffff1614610b5b576040517f08c379a0000000000000000000000000000000000000000000000000000000008152600401610b5290611fbb565b60405180910390fd5b600160009054906101000a900473ffffffffffffffffffffffffffffffffffffffff1673ffffffffffffffffffffffffffffffffffffffff16636e80b9cd826040518263ffffffff1660e01b8152600401610bb69190611df7565b600060405180830381600087803b158015610bd057600080fd5b505af1158015610be4573d6000803e3d6000fd5b5050505050565b60008054906101000a900473ffffffffffffffffffffffffffffffffffffffff1673ffffffffffffffffffffffffffffffffffffffff163373ffffffffffffffffffffffffffffffffffffffff1614610c79576040517f08c379a0000000000000000000000000000000000000000000000000000000008152600401610c7090611fbb565b60405180910390fd5b80600460006101000a81548173ffffffffffffffffffffffffffffffffffffffff021916908373ffffffffffffffffffffffffffffffffffffffff1602179055507ff611fec7babefd259c57ea5b6006acff8140ab17bb816c65ba0aa7e36c09caa881604051610ce991906121d9565b60405180910390a150565b60008054906101000a900473ffffffffffffffffffffffffffffffffffffffff1681565b60008054906101000a900473ffffffffffffffffffffffffffffffffffffffff1673ffffffffffffffffffffffffffffffffffffffff163373ffffffffffffffffffffffffffffffffffffffff1614610da6576040517f08c379a0000000000000000000000000000000000000000000000000000000008152600401610d9d90611fbb565b60405180910390fd5b80600560006101000a81548173ffffffffffffffffffffffffffffffffffffffff021916908373ffffffffffffffffffffffffffffffffffffffff1602179055507ff611fec7babefd259c57ea5b6006acff8140ab17bb816c65ba0aa7e36c09caa881604051610e169190612253565b60405180910390a150565b60008054906101000a900473ffffffffffffffffffffffffffffffffffffffff1673ffffffffffffffffffffffffffffffffffffffff163373ffffffffffffffffffffffffffffffffffffffff1614610eaf576040517f08c379a0000000000000000000000000000000000000000000000000000000008152600401610ea690611fbb565b60405180910390fd5b600160009054906101000a900473ffffffffffffffffffffffffffffffffffffffff1673ffffffffffffffffffffffffffffffffffffffff16639e8101c6858585856040518563ffffffff1660e01b8152600401610f109493929190612281565b600060405180830381600087803b158015610f2a57600080fd5b505af1158015610f3e573d6000803e3d6000fd5b5050505050505050565b60008054906101000a900473ffffffffffffffffffffffffffffffffffffffff1673ffffffffffffffffffffffffffffffffffffffff163373ffffffffffffffffffffffffffffffffffffffff1614610fd6576040517f08c379a0000000000000000000000000000000000000000000000000000000008152600401610fcd90611fbb565b60405180910390fd5b80600260006101000a81548173ffffffffffffffffffffffffffffffffffffffff021916908373ffffffffffffffffffffffffffffffffffffffff1602179055507ff611fec7babefd259c57ea5b6006acff8140ab17bb816c65ba0aa7e36c09caa8816040516110469190612312565b60405180910390a150565b60008054906101000a900473ffffffffffffffffffffffffffffffffffffffff1673ffffffffffffffffffffffffffffffffffffffff163373ffffffffffffffffffffffffffffffffffffffff16146110df576040517f08c379a00000000000000000000000000000000000000000000000000000000081526004016110d690611fbb565b60405180910390fd5b80600360006101000a81548173ffffffffffffffffffffffffffffffffffffffff021916908373ffffffffffffffffffffffffffffffffffffffff1602179055507ff611fec7babefd259c57ea5b6006acff8140ab17bb816c65ba0aa7e36c09caa88160405161114f919061238c565b60405180910390a150565b60008054906101000a900473ffffffffffffffffffffffffffffffffffffffff1673ffffffffffffffffffffffffffffffffffffffff163373ffffffffffffffffffffffffffffffffffffffff16146111e8576040517f08c379a00000000000000000000000000000000000000000000000000000000081526004016111df90611fbb565b60405180910390fd5b600260009054906101000a900473ffffffffffffffffffffffffffffffffffffffff1673ffffffffffffffffffffffffffffffffffffffff1663c42994a2826040518263ffffffff1660e01b815260040161124391906123ba565b600060405180830381600087803b15801561125d57600080fd5b505af1158015611271573d6000803e3d6000fd5b5050505050565b60008054906101000a900473ffffffffffffffffffffffffffffffffffffffff1673ffffffffffffffffffffffffffffffffffffffff163373ffffffffffffffffffffffffffffffffffffffff1614611306576040517f08c379a00000000000000000000000000000000000000000000000000000000081526004016112fd90611fbb565b60405180910390fd5b600360009054906101000a900473ffffffffffffffffffffffffffffffffffffffff1673ffffffffffffffffffffffffffffffffffffffff1663d88e48f3858585856040518563ffffffff1660e01b815260040161136794939291906120fb565b600060405180830381600087803b15801561138157600080fd5b505af1158015611395573d6000803e3d6000fd5b5050505050505050565b6000600360009054906101000a900473ffffffffffffffffffffffffffffffffffffffff1673ffffffffffffffffffffffffffffffffffffffff1663ef611cbd84846040518363ffffffff1660e01b81526004016113fe9291906123d5565b602060405180830381865afa15801561141b573d6000803e3d6000fd5b505050506040513d601f19601f8201168201806040525081019061143f9190612431565b905092915050565b60008054906101000a900473ffffffffffffffffffffffffffffffffffffffff1673ffffffffffffffffffffffffffffffffffffffff163373ffffffffffffffffffffffffffffffffffffffff16146114d5576040517f08c379a00000000000000000000000000000000000000000000000000000000081526004016114cc90611fbb565b60405180910390fd5b600160009054906101000a900473ffffffffffffffffffffffffffffffffffffffff1673ffffffffffffffffffffffffffffffffffffffff1663ef974bc1858585856040518563ffffffff1660e01b81526004016115369493929190612281565b600060405180830381600087803b15801561155057600080fd5b505af1158015611564573d6000803e3d6000fd5b5050505050505050565b60008054906101000a900473ffffffffffffffffffffffffffffffffffffffff1673ffffffffffffffffffffffffffffffffffffffff163373ffffffffffffffffffffffffffffffffffffffff16146115fc576040517f08c379a00000000000000000000000000000000000000000000000000000000081526004016115f390611fbb565b60405180910390fd5b600460009054906101000a900473ffffffffffffffffffffffffffffffffffffffff1673ffffffffffffffffffffffffffffffffffffffff1663f1c3753a826040518263ffffffff1660e01b81526004016116579190611df7565b600060405180830381600087803b15801561167157600080fd5b505af1158015611685573d6000803e3d6000fd5b5050505050565b60008054906101000a900473ffffffffffffffffffffffffffffffffffffffff1673ffffffffffffffffffffffffffffffffffffffff163373ffffffffffffffffffffffffffffffffffffffff161461171a576040517f08c379a000000000000000000000000000000000000000000000000000000000815260040161171190611fbb565b60405180910390fd5b600260009054906101000a900473ffffffffffffffffffffffffffffffffffffffff1673ffffffffffffffffffffffffffffffffffffffff1663f6ba000783836040518363ffffffff1660e01b8152600401611777929190612064565b600060405180830381600087803b15801561179157600080fd5b505af11580156117a5573d6000803e3d6000fd5b505050505050565b60008054906101000a900473ffffffffffffffffffffffffffffffffffffffff1673ffffffffffffffffffffffffffffffffffffffff163373ffffffffffffffffffffffffffffffffffffffff161461183b576040517f08c379a000000000000000000000000000000000000000000000000000000000815260040161183290611fbb565b60405180910390fd5b80600160006101000a81548173ffffffffffffffffffffffffffffffffffffffff021916908373ffffffffffffffffffffffffffffffffffffffff1602179055507ff611fec7babefd259c57ea5b6006acff8140ab17bb816c65ba0aa7e36c09caa8816040516118ab91906124aa565b60405180910390a150565b6000604051905090565b600080fd5b600080fd5b600073ffffffffffffffffffffffffffffffffffffffff82169050919050565b60006118f5826118ca565b9050919050565b611905816118ea565b811461191057600080fd5b50565b600081359050611922816118fc565b92915050565b60006020828403121561193e5761193d6118c0565b5b600061194c84828501611913565b91505092915050565b6000819050919050565b600061197a611975611970846118ca565b611955565b6118ca565b9050919050565b600061198c8261195f565b9050919050565b600061199e82611981565b9050919050565b6119ae81611993565b82525050565b60006020820190506119c960008301846119a5565b92915050565b60006119da82611981565b9050919050565b6119ea816119cf565b82525050565b6000602082019050611a0560008301846119e1565b92915050565b6000611a1682611981565b9050919050565b611a2681611a0b565b82525050565b6000602082019050611a416000830184611a1d565b92915050565b6000611a5282611981565b9050919050565b611a6281611a47565b82525050565b6000602082019050611a7d6000830184611a59565b92915050565b6000819050919050565b611a9681611a83565b8114611aa157600080fd5b50565b600081359050611ab381611a8d565b92915050565b60008060408385031215611ad057611acf6118c0565b5b6000611ade85828601611aa4565b9250506020611aef85828601611913565b9150509250929050565b600080fd5b600080fd5b6000601f19601f8301169050919050565b7f4e487b7100000000000000000000000000000000000000000000000000000000600052604160045260246000fd5b611b4c82611b03565b810181811067ffffffffffffffff82111715611b6b57611b6a611b14565b5b80604052505050565b6000611b7e6118b6565b9050611b8a8282611b43565b919050565b600067ffffffffffffffff821115611baa57611ba9611b14565b5b611bb382611b03565b9050602081019050919050565b82818337600083830152505050565b6000611be2611bdd84611b8f565b611b74565b905082815260208101848484011115611bfe57611bfd611afe565b5b611c09848285611bc0565b509392505050565b600082601f830112611c2657611c25611af9565b5b8135611c36848260208601611bcf565b91505092915050565b60008060008060808587031215611c5957611c586118c0565b5b6000611c6787828801611913565b945050602085013567ffffffffffffffff811115611c8857611c876118c5565b5b611c9487828801611c11565b935050604085013567ffffffffffffffff811115611cb557611cb46118c5565b5b611cc187828801611c11565b925050606085013567ffffffffffffffff811115611ce257611ce16118c5565b5b611cee87828801611c11565b91505092959194509250565b6000819050919050565b611d0d81611cfa565b8114611d1857600080fd5b50565b600081359050611d2a81611d04565b92915050565b60008060408385031215611d4757611d466118c0565b5b6000611d5585828601611913565b9250506020611d6685828601611d1b565b9150509250929050565b6000611d7b82611981565b9050919050565b611d8b81611d70565b82525050565b6000602082019050611da66000830184611d82565b92915050565b6000611db782611981565b9050919050565b611dc781611dac565b82525050565b6000602082019050611de26000830184611dbe565b92915050565b611df1816118ea565b82525050565b6000602082019050611e0c6000830184611de8565b92915050565b60008060008060808587031215611e2c57611e2b6118c0565b5b6000611e3a87828801611913565b9450506020611e4b87828801611d1b565b9350506040611e5c87828801611d1b565b9250506060611e6d87828801611d1b565b91505092959194509250565b600060208284031215611e8f57611e8e6118c0565b5b6000611e9d84828501611aa4565b91505092915050565b60008060408385031215611ebd57611ebc6118c0565b5b6000611ecb85828601611913565b925050602083013567ffffffffffffffff811115611eec57611eeb6118c5565b5b611ef885828601611c11565b9150509250929050565b60008115159050919050565b611f1781611f02565b82525050565b6000602082019050611f326000830184611f0e565b92915050565b600082825260208201905092915050565b7f4f6e6c79206f776e65722063616e2063616c6c20746869732066756e6374696f60008201527f6e00000000000000000000000000000000000000000000000000000000000000602082015250565b6000611fa5602183611f38565b9150611fb082611f49565b604082019050919050565b60006020820190508181036000830152611fd481611f98565b9050919050565b7f5265676973747279000000000000000000000000000000000000000000000000600082015250565b6000612011600883611f38565b915061201c82611fdb565b602082019050919050565b6000604082019050818103600083015261204081612004565b905061204f6020830184611de8565b92915050565b61205e81611a83565b82525050565b60006040820190506120796000830185612055565b6120866020830184611de8565b9392505050565b600081519050919050565b60005b838110156120b657808201518184015260208101905061209b565b60008484015250505050565b60006120cd8261208d565b6120d78185611f38565b93506120e7818560208601612098565b6120f081611b03565b840191505092915050565b60006080820190506121106000830187611de8565b818103602083015261212281866120c2565b9050818103604083015261213681856120c2565b9050818103606083015261214a81846120c2565b905095945050505050565b61215e81611cfa565b82525050565b60006040820190506121796000830185611de8565b6121866020830184612155565b9392505050565b7f43726564697453636f72696e6700000000000000000000000000000000000000600082015250565b60006121c3600d83611f38565b91506121ce8261218d565b602082019050919050565b600060408201905081810360008301526121f2816121b6565b90506122016020830184611de8565b92915050565b7f546f6b656e000000000000000000000000000000000000000000000000000000600082015250565b600061223d600583611f38565b915061224882612207565b602082019050919050565b6000604082019050818103600083015261226c81612230565b905061227b6020830184611de8565b92915050565b60006080820190506122966000830187611de8565b6122a36020830186612155565b6122b06040830185612155565b6122bd6060830184612155565b95945050505050565b7f416363657373436f6e74726f6c00000000000000000000000000000000000000600082015250565b60006122fc600d83611f38565b9150612307826122c6565b602082019050919050565b6000604082019050818103600083015261232b816122ef565b905061233a6020830184611de8565b92915050565b7f4964656e74697479000000000000000000000000000000000000000000000000600082015250565b6000612376600883611f38565b915061238182612340565b602082019050919050565b600060408201905081810360008301526123a581612369565b90506123b46020830184611de8565b92915050565b60006020820190506123cf6000830184612055565b92915050565b60006040820190506123ea6000830185611de8565b81810360208301526123fc81846120c2565b90509392505050565b61240e81611f02565b811461241957600080fd5b50565b60008151905061242b81612405565b92915050565b600060208284031215612447576124466118c0565b5b60006124558482850161241c565b91505092915050565b7f4c6f616e00000000000000000000000000000000000000000000000000000000600082015250565b6000612494600483611f38565b915061249f8261245e565b602082019050919050565b600060408201905081810360008301526124c381612487565b90506124d26020830184611de8565b9291505056fea2646970667358221220fe7a5f74080cbfbbf81beba6afb84d17235c9eaef79f9f48e5c070ca38e575f264736f6c63430008180033",
  "linkReferences": {},
  "deployedLinkReferences": {}
}