{
  "_format": "hh-sol-artifact-1",
  "contractName": "MasterControl",
  "sourceName": "contracts/MasterControl.sol",
  "abi": [
    {
      "inputs": [
        {
          "internalType": "address",
          "name": "_loanContract",
          "type": "address"
        },
        {
          "internalType": "address",
          "name": "_accessControlContract",
          "type": "address"
        },
        {
          "internalType": "address",
          "name": "_identityContract",
          "type": "address"
        },
        {
          "internalType": "address",
          "name": "_creditScoringContract",
          "type": "address"
        },
        {
          "internalType": "address",
          "name": "_tokenContract",
          "type": "address"
        },
        {
          "internalType": "address",
          "name": "_registryContract",
          "type": "address"
        }
      ],
      "stateMutability": "nonpayable",
      "type": "constructor"
    },
    {
      "anonymous": false,
      "inputs": [
        {
          "indexed": false,
          "internalType": "string",
          "name": "contractName",
          "type": "string"
        },
        {
          "indexed": false,
          "internalType": "address",
          "name": "newAddress",
          "type": "address"
        }
      ],
      "name": "ContractUpdated",
      "type": "event"
    },
    {
      "inputs": [],
      "name": "accessControlContract",
      "outputs": [
        {
          "internalType": "contract AccessControl",
          "name": "",
          "type": "address"
        }
      ],
      "stateMutability": "view",
      "type": "function"
    },
    {
      "inputs": [
        {
          "internalType": "address",
          "name": "userAddress",
          "type": "address"
        },
        {
          "internalType": "string",
          "name": "name",
          "type": "string"
        },
        {
          "internalType": "string",
          "name": "governmentId",
          "type": "string"
        },
        {
          "internalType": "string",
          "name": "aadhaarNumber",
          "type": "string"
        }
      ],
      "name": "addIdentity",
      "outputs": [],
      "stateMutability": "nonpayable",
      "type": "function"
    },
    {
      "inputs": [
        {
          "internalType": "bytes32",
          "name": "role",
          "type": "bytes32"
        },
        {
          "internalType": "address",
          "name": "member",
          "type": "address"
        }
      ],
      "name": "assignRole",
      "outputs": [],
      "stateMutability": "nonpayable",
      "type": "function"
    },
    {
      "inputs": [
        {
          "internalType": "address",
          "name": "userAddress",
          "type": "address"
        }
      ],
      "name": "calculateCreditScore",
      "outputs": [],
      "stateMutability": "nonpayable",
      "type": "function"
    },
    {
      "inputs": [
        {
          "internalType": "address",
          "name": "borrower",
          "type": "address"
        }
      ],
      "name": "closeLoan",
      "outputs": [],
      "stateMutability": "nonpayable",
      "type": "function"
    },
    {
      "inputs": [
        {
          "internalType": "address",
          "name": "borrower",
          "type": "address"
        },
        {
          "internalType": "uint256",
          "name": "amount",
          "type": "uint256"
        },
        {
          "internalType": "uint256",
          "name": "interestRate",
          "type": "uint256"
        },
        {
          "internalType": "uint256",
          "name": "duration",
          "type": "uint256"
        }
      ],
      "name": "createLoan",
      "outputs": [],
      "stateMutability": "nonpayable",
      "type": "function"
    },
    {
      "inputs": [
        {
          "internalType": "bytes32",
          "name": "role",
          "type": "bytes32"
        }
      ],
      "name": "createRole",
      "outputs": [],
      "stateMutability": "nonpayable",
      "type": "function"
    },
    {
      "inputs": [],
      "name": "creditScoringContract",
      "outputs": [
        {
          "internalType": "contract CreditScoring",
          "name": "",
          "type": "address"
        }
      ],
      "stateMutability": "view",
      "type": "function"
    },
    {
      "inputs": [
        {
          "internalType": "address",
          "name": "borrower",
          "type": "address"
        }
      ],
      "name": "fetchLoan",
      "outputs": [
        {
          "components": [
            {
              "internalType": "uint256",
              "name": "amount",
              "type": "uint256"
            },
            {
              "internalType": "uint256",
              "name": "interestRate",
              "type": "uint256"
            },
            {
              "internalType": "uint256",
              "name": "duration",
              "type": "uint256"
            },
            {
              "internalType": "uint256",
              "name": "balance",
              "type": "uint256"
            },
            {
              "internalType": "uint256",
              "name": "startTime",
              "type": "uint256"
            }
          ],
          "internalType": "struct Loan.LoanDetails",
          "name": "",
          "type": "tuple"
        }
      ],
      "stateMutability": "view",
      "type": "function"
    },
    {
      "inputs": [],
      "name": "identityContract",
      "outputs": [
        {
          "internalType": "contract Identity",
          "name": "",
          "type": "address"
        }
      ],
      "stateMutability": "view",
      "type": "function"
    },
    {
      "inputs": [],
      "name": "loanContract",
      "outputs": [
        {
          "internalType": "contract Loan",
          "name": "",
          "type": "address"
        }
      ],
      "stateMutability": "view",
      "type": "function"
    },
    {
      "inputs": [
        {
          "internalType": "address",
          "name": "recipient",
          "type": "address"
        },
        {
          "internalType": "uint256",
          "name": "amount",
          "type": "uint256"
        }
      ],
      "name": "mint",
      "outputs": [],
      "stateMutability": "nonpayable",
      "type": "function"
    },
    {
      "inputs": [],
      "name": "owner",
      "outputs": [
        {
          "internalType": "address",
          "name": "",
          "type": "address"
        }
      ],
      "stateMutability": "view",
      "type": "function"
    },
    {
      "inputs": [],
      "name": "registryContract",
      "outputs": [
        {
          "internalType": "contract Registry",
          "name": "",
          "type": "address"
        }
      ],
      "stateMutability": "view",
      "type": "function"
    },
    {
      "inputs": [
        {
          "internalType": "bytes32",
          "name": "role",
          "type": "bytes32"
        },
        {
          "internalType": "address",
          "name": "member",
          "type": "address"
        }
      ],
      "name": "removeRole",
      "outputs": [],
      "stateMutability": "nonpayable",
      "type": "function"
    },
    {
      "inputs": [],
      "name": "tokenContract",
      "outputs": [
        {
          "internalType": "contract Token",
          "name": "",
          "type": "address"
        }
      ],
      "stateMutability": "view",
      "type": "function"
    },
    {
      "inputs": [
        {
          "internalType": "address",
          "name": "_accessControlContract",
          "type": "address"
        }
      ],
      "name": "updateAccessControlContract",
      "outputs": [],
      "stateMutability": "nonpayable",
      "type": "function"
    },
    {
      "inputs": [
        {
          "internalType": "address",
          "name": "userAddress",
          "type": "address"
        },
        {
          "internalType": "uint256",
          "name": "score",
          "type": "uint256"
        }
      ],
      "name": "updateCreditScore",
      "outputs": [],
      "stateMutability": "nonpayable",
      "type": "function"
    },
    {
      "inputs": [
        {
          "internalType": "address",
          "name": "_creditScoringContract",
          "type": "address"
        }
      ],
      "name": "updateCreditScoringContract",
      "outputs": [],
      "stateMutability": "nonpayable",
      "type": "function"
    },
    {
      "inputs": [
        {
          "internalType": "address",
          "name": "userAddress",
          "type": "address"
        },
        {
          "internalType": "string",
          "name": "name",
          "type": "string"
        },
        {
          "internalType": "string",
          "name": "governmentId",
          "type": "string"
        },
        {
          "internalType": "string",
          "name": "aadhaarNumber",
          "type": "string"
        }
      ],
      "name": "updateIdentity",
      "outputs": [],
      "stateMutability": "nonpayable",
      "type": "function"
    },
    {
      "inputs": [
        {
          "internalType": "address",
          "name": "_identityContract",
          "type": "address"
        }
      ],
      "name": "updateIdentityContract",
      "outputs": [],
      "stateMutability": "nonpayable",
      "type": "function"
    },
    {
      "inputs": [
        {
          "internalType": "address",
          "name": "borrower",
          "type": "address"
        },
        {
          "internalType": "uint256",
          "name": "amount",
          "type": "uint256"
        },
        {
          "internalType": "uint256",
          "name": "interestRate",
          "type": "uint256"
        },
        {
          "internalType": "uint256",
          "name": "duration",
          "type": "uint256"
        }
      ],
      "name": "updateLoan",
      "outputs": [],
      "stateMutability": "nonpayable",
      "type": "function"
    },
    {
      "inputs": [
        {
          "internalType": "address",
          "name": "_loanContract",
          "type": "address"
        }
      ],
      "name": "updateLoanContract",
      "outputs": [],
      "stateMutability": "nonpayable",
      "type": "function"
    },
    {
      "inputs": [
        {
          "internalType": "address",
          "name": "_registryContract",
          "type": "address"
        }
      ],
      "name": "updateRegistryContract",
      "outputs": [],
      "stateMutability": "nonpayable",
      "type": "function"
    },
    {
      "inputs": [
        {
          "internalType": "address",
          "name": "_tokenContract",
          "type": "address"
        }
      ],
      "name": "updateTokenContract",
      "outputs": [],
      "stateMutability": "nonpayable",
      "type": "function"
    },
    {
      "inputs": [
        {
          "internalType": "address",
          "name": "userAddress",
          "type": "address"
        },
        {
          "internalType": "string",
          "name": "aadhaarNumber",
          "type": "string"
        }
      ],
      "name": "verifyAadhaar",
      "outputs": [
        {
          "internalType": "bool",
          "name": "",
          "type": "bool"
        }
      ],
      "stateMutability": "view",
      "type": "function"
    }
  ],
  "bytecode": "0x60806040523480156200001157600080fd5b5060405162002ab738038062002ab7833981810160405281019062000037919062000273565b336000806101000a81548173ffffffffffffffffffffffffffffffffffffffff021916908373ffffffffffffffffffffffffffffffffffffffff16021790555085600160006101000a81548173ffffffffffffffffffffffffffffffffffffffff021916908373ffffffffffffffffffffffffffffffffffffffff16021790555084600260006101000a81548173ffffffffffffffffffffffffffffffffffffffff021916908373ffffffffffffffffffffffffffffffffffffffff16021790555083600360006101000a81548173ffffffffffffffffffffffffffffffffffffffff021916908373ffffffffffffffffffffffffffffffffffffffff16021790555082600460006101000a81548173ffffffffffffffffffffffffffffffffffffffff021916908373ffffffffffffffffffffffffffffffffffffffff16021790555081600560006101000a81548173ffffffffffffffffffffffffffffffffffffffff021916908373ffffffffffffffffffffffffffffffffffffffff16021790555080600660006101000a81548173ffffffffffffffffffffffffffffffffffffffff021916908373ffffffffffffffffffffffffffffffffffffffff1602179055505050505050506200030f565b600080fd5b600073ffffffffffffffffffffffffffffffffffffffff82169050919050565b60006200023b826200020e565b9050919050565b6200024d816200022e565b81146200025957600080fd5b50565b6000815190506200026d8162000242565b92915050565b60008060008060008060c0878903121562000293576200029262000209565b5b6000620002a389828a016200025c565b9650506020620002b689828a016200025c565b9550506040620002c989828a016200025c565b9450506060620002dc89828a016200025c565b9350506080620002ef89828a016200025c565b92505060a06200030289828a016200025c565b9150509295509295509295565b612798806200031f6000396000f3fe608060405234801561001057600080fd5b506004361061018e5760003560e01c806380ed9110116100de578063c42994a211610097578063ef974bc111610071578063ef974bc114610431578063f1c3753a1461044d578063f6ba000714610469578063fb3ec639146104855761018e565b8063c42994a2146103c9578063d88e48f3146103e5578063ef611cbd146104015761018e565b806380ed91101461031f5780638da5cb5b1461033b578063989ced26146103595780639e8101c614610375578063a274176e14610391578063ac7eeff3146103ad5761018e565b806330a727b31161014b57806355a373d61161012557806355a373d6146102ab57806365352f9d146102c957806367031bae146102e55780636e80b9cd146103035761018e565b806330a727b3146102575780633216622c1461027357806340c10f191461028f5761018e565b8063026c75761461019357806310bba285146101c35780631bde13ef146101df57806321fcc185146101fd578063253f284b1461021b57806328c1f99b14610239575b600080fd5b6101ad60048036038101906101a89190611a4d565b6104a1565b6040516101ba9190611afb565b60405180910390f35b6101dd60048036038101906101d89190611a4d565b61054c565b005b6101e7610655565b6040516101f49190611b75565b60405180910390f35b61020561067b565b6040516102129190611bb1565b60405180910390f35b6102236106a1565b6040516102309190611bed565b60405180910390f35b6102416106c7565b60405161024e9190611c29565b60405180910390f35b610271600480360381019061026c9190611c7a565b6106ed565b005b61028d60048036038101906102889190611e00565b61080e565b005b6102a960048036038101906102a49190611ee7565b610935565b005b6102b3610a56565b6040516102c09190611f48565b60405180910390f35b6102e360048036038101906102de9190611ee7565b610a7c565b005b6102ed610b9d565b6040516102fa9190611f84565b60405180910390f35b61031d60048036038101906103189190611a4d565b610bc3565b005b61033960048036038101906103349190611a4d565b610ce1565b005b610343610dea565b6040516103509190611fae565b60405180910390f35b610373600480360381019061036e9190611a4d565b610e0e565b005b61038f600480360381019061038a9190611fc9565b610f17565b005b6103ab60048036038101906103a69190611a4d565b61103e565b005b6103c760048036038101906103c29190611a4d565b611147565b005b6103e360048036038101906103de9190612030565b611250565b005b6103ff60048036038101906103fa9190611e00565b61136e565b005b61041b6004803603810190610416919061205d565b611495565b60405161042891906120d4565b60405180910390f35b61044b60048036038101906104469190611fc9565b61153d565b005b61046760048036038101906104629190611a4d565b611664565b005b610483600480360381019061047e9190611c7a565b611782565b005b61049f600480360381019061049a9190611a4d565b6118a3565b005b6104a96119ac565b600160009054906101000a900473ffffffffffffffffffffffffffffffffffffffff1673ffffffffffffffffffffffffffffffffffffffff1663026c7576836040518263ffffffff1660e01b81526004016105049190611fae565b60a060405180830381865afa158015610521573d6000803e3d6000fd5b505050506040513d601f19601f820116820180604052508101906105459190612195565b9050919050565b60008054906101000a900473ffffffffffffffffffffffffffffffffffffffff1673ffffffffffffffffffffffffffffffffffffffff163373ffffffffffffffffffffffffffffffffffffffff16146105da576040517f08c379a00000000000000000000000000000000000000000000000000000000081526004016105d190612245565b60405180910390fd5b80600660006101000a81548173ffffffffffffffffffffffffffffffffffffffff021916908373ffffffffffffffffffffffffffffffffffffffff1602179055507ff611fec7babefd259c57ea5b6006acff8140ab17bb816c65ba0aa7e36c09caa88160405161064a91906122b1565b60405180910390a150565b600460009054906101000a900473ffffffffffffffffffffffffffffffffffffffff1681565b600260009054906101000a900473ffffffffffffffffffffffffffffffffffffffff1681565b600160009054906101000a900473ffffffffffffffffffffffffffffffffffffffff1681565b600660009054906101000a900473ffffffffffffffffffffffffffffffffffffffff1681565b60008054906101000a900473ffffffffffffffffffffffffffffffffffffffff1673ffffffffffffffffffffffffffffffffffffffff163373ffffffffffffffffffffffffffffffffffffffff161461077b576040517f08c379a000000000000000000000000000000000000000000000000000000000815260040161077290612245565b60405180910390fd5b600260009054906101000a900473ffffffffffffffffffffffffffffffffffffffff1673ffffffffffffffffffffffffffffffffffffffff166330a727b383836040518363ffffffff1660e01b81526004016107d89291906122ee565b600060405180830381600087803b1580156107f257600080fd5b505af1158015610806573d6000803e3d6000fd5b505050505050565b60008054906101000a900473ffffffffffffffffffffffffffffffffffffffff1673ffffffffffffffffffffffffffffffffffffffff163373ffffffffffffffffffffffffffffffffffffffff161461089c576040517f08c379a000000000000000000000000000000000000000000000000000000000815260040161089390612245565b60405180910390fd5b600360009054906101000a900473ffffffffffffffffffffffffffffffffffffffff1673ffffffffffffffffffffffffffffffffffffffff16633216622c858585856040518563ffffffff1660e01b81526004016108fd9493929190612385565b600060405180830381600087803b15801561091757600080fd5b505af115801561092b573d6000803e3d6000fd5b5050505050505050565b60008054906101000a900473ffffffffffffffffffffffffffffffffffffffff1673ffffffffffffffffffffffffffffffffffffffff163373ffffffffffffffffffffffffffffffffffffffff16146109c3576040517f08c379a00000000000000000000000000000000000000000000000000000000081526004016109ba90612245565b60405180910390fd5b600560009054906101000a900473ffffffffffffffffffffffffffffffffffffffff1673ffffffffffffffffffffffffffffffffffffffff166340c10f1983836040518363ffffffff1660e01b8152600401610a209291906123ee565b600060405180830381600087803b158015610a3a57600080fd5b505af1158015610a4e573d6000803e3d6000fd5b505050505050565b600560009054906101000a900473ffffffffffffffffffffffffffffffffffffffff1681565b60008054906101000a900473ffffffffffffffffffffffffffffffffffffffff1673ffffffffffffffffffffffffffffffffffffffff163373ffffffffffffffffffffffffffffffffffffffff1614610b0a576040517f08c379a0000000000000000000000000000000000000000000000000000000008152600401610b0190612245565b60405180910390fd5b600460009054906101000a900473ffffffffffffffffffffffffffffffffffffffff1673ffffffffffffffffffffffffffffffffffffffff166365352f9d83836040518363ffffffff1660e01b8152600401610b679291906123ee565b600060405180830381600087803b158015610b8157600080fd5b505af1158015610b95573d6000803e3d6000fd5b505050505050565b600360009054906101000a900473ffffffffffffffffffffffffffffffffffffffff1681565b60008054906101000a900473ffffffffffffffffffffffffffffffffffffffff1673ffffffffffffffffffffffffffffffffffffffff163373ffffffffffffffffffffffffffffffffffffffff1614610c51576040517f08c379a0000000000000000000000000000000000000000000000000000000008152600401610c4890612245565b60405180910390fd5b600160009054906101000a900473ffffffffffffffffffffffffffffffffffffffff1673ffffffffffffffffffffffffffffffffffffffff16636e80b9cd826040518263ffffffff1660e01b8152600401610cac9190611fae565b600060405180830381600087803b158015610cc657600080fd5b505af1158015610cda573d6000803e3d6000fd5b5050505050565b60008054906101000a900473ffffffffffffffffffffffffffffffffffffffff1673ffffffffffffffffffffffffffffffffffffffff163373ffffffffffffffffffffffffffffffffffffffff1614610d6f576040517f08c379a0000000000000000000000000000000000000000000000000000000008152600401610d6690612245565b60405180910390fd5b80600460006101000a81548173ffffffffffffffffffffffffffffffffffffffff021916908373ffffffffffffffffffffffffffffffffffffffff1602179055507ff611fec7babefd259c57ea5b6006acff8140ab17bb816c65ba0aa7e36c09caa881604051610ddf9190612463565b60405180910390a150565b60008054906101000a900473ffffffffffffffffffffffffffffffffffffffff1681565b60008054906101000a900473ffffffffffffffffffffffffffffffffffffffff1673ffffffffffffffffffffffffffffffffffffffff163373ffffffffffffffffffffffffffffffffffffffff1614610e9c576040517f08c379a0000000000000000000000000000000000000000000000000000000008152600401610e9390612245565b60405180910390fd5b80600560006101000a81548173ffffffffffffffffffffffffffffffffffffffff021916908373ffffffffffffffffffffffffffffffffffffffff1602179055507ff611fec7babefd259c57ea5b6006acff8140ab17bb816c65ba0aa7e36c09caa881604051610f0c91906124dd565b60405180910390a150565b60008054906101000a900473ffffffffffffffffffffffffffffffffffffffff1673ffffffffffffffffffffffffffffffffffffffff163373ffffffffffffffffffffffffffffffffffffffff1614610fa5576040517f08c379a0000000000000000000000000000000000000000000000000000000008152600401610f9c90612245565b60405180910390fd5b600160009054906101000a900473ffffffffffffffffffffffffffffffffffffffff1673ffffffffffffffffffffffffffffffffffffffff16639e8101c6858585856040518563ffffffff1660e01b8152600401611006949392919061250b565b600060405180830381600087803b15801561102057600080fd5b505af1158015611034573d6000803e3d6000fd5b5050505050505050565b60008054906101000a900473ffffffffffffffffffffffffffffffffffffffff1673ffffffffffffffffffffffffffffffffffffffff163373ffffffffffffffffffffffffffffffffffffffff16146110cc576040517f08c379a00000000000000000000000000000000000000000000000000000000081526004016110c390612245565b60405180910390fd5b80600260006101000a81548173ffffffffffffffffffffffffffffffffffffffff021916908373ffffffffffffffffffffffffffffffffffffffff1602179055507ff611fec7babefd259c57ea5b6006acff8140ab17bb816c65ba0aa7e36c09caa88160405161113c919061259c565b60405180910390a150565b60008054906101000a900473ffffffffffffffffffffffffffffffffffffffff1673ffffffffffffffffffffffffffffffffffffffff163373ffffffffffffffffffffffffffffffffffffffff16146111d5576040517f08c379a00000000000000000000000000000000000000000000000000000000081526004016111cc90612245565b60405180910390fd5b80600360006101000a81548173ffffffffffffffffffffffffffffffffffffffff021916908373ffffffffffffffffffffffffffffffffffffffff1602179055507ff611fec7babefd259c57ea5b6006acff8140ab17bb816c65ba0aa7e36c09caa8816040516112459190612616565b60405180910390a150565b60008054906101000a900473ffffffffffffffffffffffffffffffffffffffff1673ffffffffffffffffffffffffffffffffffffffff163373ffffffffffffffffffffffffffffffffffffffff16146112de576040517f08c379a00000000000000000000000000000000000000000000000000000000081526004016112d590612245565b60405180910390fd5b600260009054906101000a900473ffffffffffffffffffffffffffffffffffffffff1673ffffffffffffffffffffffffffffffffffffffff1663c42994a2826040518263ffffffff1660e01b81526004016113399190612644565b600060405180830381600087803b15801561135357600080fd5b505af1158015611367573d6000803e3d6000fd5b5050505050565b60008054906101000a900473ffffffffffffffffffffffffffffffffffffffff1673ffffffffffffffffffffffffffffffffffffffff163373ffffffffffffffffffffffffffffffffffffffff16146113fc576040517f08c379a00000000000000000000000000000000000000000000000000000000081526004016113f390612245565b60405180910390fd5b600360009054906101000a900473ffffffffffffffffffffffffffffffffffffffff1673ffffffffffffffffffffffffffffffffffffffff1663d88e48f3858585856040518563ffffffff1660e01b815260040161145d9493929190612385565b600060405180830381600087803b15801561147757600080fd5b505af115801561148b573d6000803e3d6000fd5b5050505050505050565b6000600360009054906101000a900473ffffffffffffffffffffffffffffffffffffffff1673ffffffffffffffffffffffffffffffffffffffff1663ef611cbd84846040518363ffffffff1660e01b81526004016114f492919061265f565b602060405180830381865afa158015611511573d6000803e3d6000fd5b505050506040513d601f19601f8201168201806040525081019061153591906126bb565b905092915050565b60008054906101000a900473ffffffffffffffffffffffffffffffffffffffff1673ffffffffffffffffffffffffffffffffffffffff163373ffffffffffffffffffffffffffffffffffffffff16146115cb576040517f08c379a00000000000000000000000000000000000000000000000000000000081526004016115c290612245565b60405180910390fd5b600160009054906101000a900473ffffffffffffffffffffffffffffffffffffffff1673ffffffffffffffffffffffffffffffffffffffff1663ef974bc1858585856040518563ffffffff1660e01b815260040161162c949392919061250b565b600060405180830381600087803b15801561164657600080fd5b505af115801561165a573d6000803e3d6000fd5b5050505050505050565b60008054906101000a900473ffffffffffffffffffffffffffffffffffffffff1673ffffffffffffffffffffffffffffffffffffffff163373ffffffffffffffffffffffffffffffffffffffff16146116f2576040517f08c379a00000000000000000000000000000000000000000000000000000000081526004016116e990612245565b60405180910390fd5b600460009054906101000a900473ffffffffffffffffffffffffffffffffffffffff1673ffffffffffffffffffffffffffffffffffffffff1663f1c3753a826040518263ffffffff1660e01b815260040161174d9190611fae565b600060405180830381600087803b15801561176757600080fd5b505af115801561177b573d6000803e3d6000fd5b5050505050565b60008054906101000a900473ffffffffffffffffffffffffffffffffffffffff1673ffffffffffffffffffffffffffffffffffffffff163373ffffffffffffffffffffffffffffffffffffffff1614611810576040517f08c379a000000000000000000000000000000000000000000000000000000000815260040161180790612245565b60405180910390fd5b600260009054906101000a900473ffffffffffffffffffffffffffffffffffffffff1673ffffffffffffffffffffffffffffffffffffffff1663f6ba000783836040518363ffffffff1660e01b815260040161186d9291906122ee565b600060405180830381600087803b15801561188757600080fd5b505af115801561189b573d6000803e3d6000fd5b505050505050565b60008054906101000a900473ffffffffffffffffffffffffffffffffffffffff1673ffffffffffffffffffffffffffffffffffffffff163373ffffffffffffffffffffffffffffffffffffffff1614611931576040517f08c379a000000000000000000000000000000000000000000000000000000000815260040161192890612245565b60405180910390fd5b80600160006101000a81548173ffffffffffffffffffffffffffffffffffffffff021916908373ffffffffffffffffffffffffffffffffffffffff1602179055507ff611fec7babefd259c57ea5b6006acff8140ab17bb816c65ba0aa7e36c09caa8816040516119a19190612734565b60405180910390a150565b6040518060a0016040528060008152602001600081526020016000815260200160008152602001600081525090565b6000604051905090565b600080fd5b600080fd5b600073ffffffffffffffffffffffffffffffffffffffff82169050919050565b6000611a1a826119ef565b9050919050565b611a2a81611a0f565b8114611a3557600080fd5b50565b600081359050611a4781611a21565b92915050565b600060208284031215611a6357611a626119e5565b5b6000611a7184828501611a38565b91505092915050565b6000819050919050565b611a8d81611a7a565b82525050565b60a082016000820151611aa96000850182611a84565b506020820151611abc6020850182611a84565b506040820151611acf6040850182611a84565b506060820151611ae26060850182611a84565b506080820151611af56080850182611a84565b50505050565b600060a082019050611b106000830184611a93565b92915050565b6000819050919050565b6000611b3b611b36611b31846119ef565b611b16565b6119ef565b9050919050565b6000611b4d82611b20565b9050919050565b6000611b5f82611b42565b9050919050565b611b6f81611b54565b82525050565b6000602082019050611b8a6000830184611b66565b92915050565b6000611b9b82611b42565b9050919050565b611bab81611b90565b82525050565b6000602082019050611bc66000830184611ba2565b92915050565b6000611bd782611b42565b9050919050565b611be781611bcc565b82525050565b6000602082019050611c026000830184611bde565b92915050565b6000611c1382611b42565b9050919050565b611c2381611c08565b82525050565b6000602082019050611c3e6000830184611c1a565b92915050565b6000819050919050565b611c5781611c44565b8114611c6257600080fd5b50565b600081359050611c7481611c4e565b92915050565b60008060408385031215611c9157611c906119e5565b5b6000611c9f85828601611c65565b9250506020611cb085828601611a38565b9150509250929050565b600080fd5b600080fd5b6000601f19601f8301169050919050565b7f4e487b7100000000000000000000000000000000000000000000000000000000600052604160045260246000fd5b611d0d82611cc4565b810181811067ffffffffffffffff82111715611d2c57611d2b611cd5565b5b80604052505050565b6000611d3f6119db565b9050611d4b8282611d04565b919050565b600067ffffffffffffffff821115611d6b57611d6a611cd5565b5b611d7482611cc4565b9050602081019050919050565b82818337600083830152505050565b6000611da3611d9e84611d50565b611d35565b905082815260208101848484011115611dbf57611dbe611cbf565b5b611dca848285611d81565b509392505050565b600082601f830112611de757611de6611cba565b5b8135611df7848260208601611d90565b91505092915050565b60008060008060808587031215611e1a57611e196119e5565b5b6000611e2887828801611a38565b945050602085013567ffffffffffffffff811115611e4957611e486119ea565b5b611e5587828801611dd2565b935050604085013567ffffffffffffffff811115611e7657611e756119ea565b5b611e8287828801611dd2565b925050606085013567ffffffffffffffff811115611ea357611ea26119ea565b5b611eaf87828801611dd2565b91505092959194509250565b611ec481611a7a565b8114611ecf57600080fd5b50565b600081359050611ee181611ebb565b92915050565b60008060408385031215611efe57611efd6119e5565b5b6000611f0c85828601611a38565b9250506020611f1d85828601611ed2565b9150509250929050565b6000611f3282611b42565b9050919050565b611f4281611f27565b82525050565b6000602082019050611f5d6000830184611f39565b92915050565b6000611f6e82611b42565b9050919050565b611f7e81611f63565b82525050565b6000602082019050611f996000830184611f75565b92915050565b611fa881611a0f565b82525050565b6000602082019050611fc36000830184611f9f565b92915050565b60008060008060808587031215611fe357611fe26119e5565b5b6000611ff187828801611a38565b945050602061200287828801611ed2565b935050604061201387828801611ed2565b925050606061202487828801611ed2565b91505092959194509250565b600060208284031215612046576120456119e5565b5b600061205484828501611c65565b91505092915050565b60008060408385031215612074576120736119e5565b5b600061208285828601611a38565b925050602083013567ffffffffffffffff8111156120a3576120a26119ea565b5b6120af85828601611dd2565b9150509250929050565b60008115159050919050565b6120ce816120b9565b82525050565b60006020820190506120e960008301846120c5565b92915050565b600080fd5b60008151905061210381611ebb565b92915050565b600060a0828403121561211f5761211e6120ef565b5b61212960a0611d35565b90506000612139848285016120f4565b600083015250602061214d848285016120f4565b6020830152506040612161848285016120f4565b6040830152506060612175848285016120f4565b6060830152506080612189848285016120f4565b60808301525092915050565b600060a082840312156121ab576121aa6119e5565b5b60006121b984828501612109565b91505092915050565b600082825260208201905092915050565b7f4f6e6c79206f776e65722063616e2063616c6c20746869732066756e6374696f60008201527f6e00000000000000000000000000000000000000000000000000000000000000602082015250565b600061222f6021836121c2565b915061223a826121d3565b604082019050919050565b6000602082019050818103600083015261225e81612222565b9050919050565b7f5265676973747279000000000000000000000000000000000000000000000000600082015250565b600061229b6008836121c2565b91506122a682612265565b602082019050919050565b600060408201905081810360008301526122ca8161228e565b90506122d96020830184611f9f565b92915050565b6122e881611c44565b82525050565b600060408201905061230360008301856122df565b6123106020830184611f9f565b9392505050565b600081519050919050565b60005b83811015612340578082015181840152602081019050612325565b60008484015250505050565b600061235782612317565b61236181856121c2565b9350612371818560208601612322565b61237a81611cc4565b840191505092915050565b600060808201905061239a6000830187611f9f565b81810360208301526123ac818661234c565b905081810360408301526123c0818561234c565b905081810360608301526123d4818461234c565b905095945050505050565b6123e881611a7a565b82525050565b60006040820190506124036000830185611f9f565b61241060208301846123df565b9392505050565b7f43726564697453636f72696e6700000000000000000000000000000000000000600082015250565b600061244d600d836121c2565b915061245882612417565b602082019050919050565b6000604082019050818103600083015261247c81612440565b905061248b6020830184611f9f565b92915050565b7f546f6b656e000000000000000000000000000000000000000000000000000000600082015250565b60006124c76005836121c2565b91506124d282612491565b602082019050919050565b600060408201905081810360008301526124f6816124ba565b90506125056020830184611f9f565b92915050565b60006080820190506125206000830187611f9f565b61252d60208301866123df565b61253a60408301856123df565b61254760608301846123df565b95945050505050565b7f416363657373436f6e74726f6c00000000000000000000000000000000000000600082015250565b6000612586600d836121c2565b915061259182612550565b602082019050919050565b600060408201905081810360008301526125b581612579565b90506125c46020830184611f9f565b92915050565b7f4964656e74697479000000000000000000000000000000000000000000000000600082015250565b60006126006008836121c2565b915061260b826125ca565b602082019050919050565b6000604082019050818103600083015261262f816125f3565b905061263e6020830184611f9f565b92915050565b600060208201905061265960008301846122df565b92915050565b60006040820190506126746000830185611f9f565b8181036020830152612686818461234c565b90509392505050565b612698816120b9565b81146126a357600080fd5b50565b6000815190506126b58161268f565b92915050565b6000602082840312156126d1576126d06119e5565b5b60006126df848285016126a6565b91505092915050565b7f4c6f616e00000000000000000000000000000000000000000000000000000000600082015250565b600061271e6004836121c2565b9150612729826126e8565b602082019050919050565b6000604082019050818103600083015261274d81612711565b905061275c6020830184611f9f565b9291505056fea2646970667358221220487a5c94e4db3b24f7705fc176a79c9affd5b640819c4c3fcd7fe182573e9e5064736f6c63430008180033",
  "linkReferences": {},
  "deployedLinkReferences": {}
}